{
  "contractName": "SampleERC20",
  "abi": [
    {
      "anonymous": false,
      "inputs": [
        {
          "indexed": true,
          "internalType": "address",
          "name": "to",
          "type": "address"
        },
        {
          "indexed": false,
          "internalType": "uint256",
          "name": "value",
          "type": "uint256"
        }
      ],
      "name": "Mint",
      "type": "event"
    },
    {
      "anonymous": false,
      "inputs": [
        {
          "indexed": true,
          "internalType": "address",
          "name": "from",
          "type": "address"
        },
        {
          "indexed": true,
          "internalType": "address",
          "name": "to",
          "type": "address"
        },
        {
          "indexed": false,
          "internalType": "uint256",
          "name": "value",
          "type": "uint256"
        }
      ],
      "name": "Transfer",
      "type": "event"
    },
    {
      "inputs": [
        {
          "internalType": "address",
          "name": "",
          "type": "address"
        }
      ],
      "name": "balanceOf",
      "outputs": [
        {
          "internalType": "uint256",
          "name": "",
          "type": "uint256"
        }
      ],
      "stateMutability": "view",
      "type": "function",
      "constant": true
    },
    {
      "inputs": [],
      "name": "decimals",
      "outputs": [
        {
          "internalType": "uint8",
          "name": "",
          "type": "uint8"
        }
      ],
      "stateMutability": "view",
      "type": "function",
      "constant": true
    },
    {
      "inputs": [],
      "name": "name",
      "outputs": [
        {
          "internalType": "string",
          "name": "",
          "type": "string"
        }
      ],
      "stateMutability": "view",
      "type": "function",
      "constant": true
    },
    {
      "inputs": [],
      "name": "symbol",
      "outputs": [
        {
          "internalType": "string",
          "name": "",
          "type": "string"
        }
      ],
      "stateMutability": "view",
      "type": "function",
      "constant": true
    },
    {
      "inputs": [],
      "name": "totalSupply",
      "outputs": [
        {
          "internalType": "uint256",
          "name": "",
          "type": "uint256"
        }
      ],
      "stateMutability": "view",
      "type": "function",
      "constant": true
    },
    {
      "inputs": [
        {
          "internalType": "address",
          "name": "to",
          "type": "address"
        },
        {
          "internalType": "uint256",
          "name": "amount",
          "type": "uint256"
        }
      ],
      "name": "mint",
      "outputs": [],
      "stateMutability": "nonpayable",
      "type": "function"
    },
    {
      "inputs": [
        {
          "internalType": "address",
          "name": "to",
          "type": "address"
        },
        {
          "internalType": "uint256",
          "name": "amount",
          "type": "uint256"
        }
      ],
      "name": "transfer",
      "outputs": [
        {
          "internalType": "bool",
          "name": "",
          "type": "bool"
        }
      ],
      "stateMutability": "nonpayable",
      "type": "function"
    }
  ],
  "bytecode": "0x60c0604052600b60808190526a053616d706c6545524332360ac1b60a090815261002c9160009190610077565b506040805180820190915260038082526253494d60e81b602090920191825261005791600191610077565b506002805460ff1916601217905534801561007157600080fd5b5061014b565b82805461008390610110565b90600052602060002090601f0160209004810192826100a557600085556100eb565b82601f106100be57805160ff19168380011785556100eb565b828001600101855582156100eb579182015b828111156100eb5782518255916020019190600101906100d0565b506100f79291506100fb565b5090565b5b808211156100f757600081556001016100fc565b60028104600182168061012457607f821691505b6020821081141561014557634e487b7160e01b600052602260045260246000fd5b50919050565b6105e38061015a6000396000f3fe608060405234801561001057600080fd5b506004361061007d5760003560e01c806340c10f191161005b57806340c10f19146100ca57806370a08231146100df57806395d89b41146100f2578063a9059cbb146100fa5761007d565b806306fdde031461008257806318160ddd146100a0578063313ce567146100b5575b600080fd5b61008a61011a565b6040516100979190610443565b60405180910390f35b6100a86101a8565b6040516100979190610516565b6100bd6101ae565b604051610097919061051f565b6100dd6100d836600461040f565b6101b7565b005b6100a86100ed3660046103ee565b6102bf565b61008a6102d1565b61010d61010836600461040f565b6102de565b6040516100979190610438565b600080546101279061055c565b80601f01602080910402602001604051908101604052809291908181526020018280546101539061055c565b80156101a05780601f10610175576101008083540402835291602001916101a0565b820191906000526020600020905b81548152906001019060200180831161018357829003601f168201915b505050505081565b60035481565b60025460ff1681565b6001600160a01b0382166101e65760405162461bcd60e51b81526004016101dd90610496565b60405180910390fd5b6001600160a01b0382166000908152600460205260408120805483929061020e90849061052d565b925050819055508060036000828254610227919061052d565b92505081905550816001600160a01b03167f0f6798a560793a54c3bcfe86a93cde1e73087d944c0ea20544137d4121396885826040516102679190610516565b60405180910390a2816001600160a01b031660006001600160a01b03167fddf252ad1be2c89b69c2b068fc378daa952ba7f163c4a11628f55a4df523b3ef836040516102b39190610516565b60405180910390a35050565b60046020526000908152604090205481565b600180546101279061055c565b3360009081526004602052604081205482111561030d5760405162461bcd60e51b81526004016101dd906104bf565b6001600160a01b0383166103335760405162461bcd60e51b81526004016101dd906104eb565b3360009081526004602052604081208054849290610352908490610545565b90915550506001600160a01b0383166000908152600460205260408120805484929061037f90849061052d565b90915550506040516001600160a01b0384169033907fddf252ad1be2c89b69c2b068fc378daa952ba7f163c4a11628f55a4df523b3ef906103c1908690610516565b60405180910390a350600192915050565b80356001600160a01b03811681146103e957600080fd5b919050565b6000602082840312156103ff578081fd5b610408826103d2565b9392505050565b60008060408385031215610421578081fd5b61042a836103d2565b946020939093013593505050565b901515815260200190565b6000602080835283518082850152825b8181101561046f57858101830151858201604001528201610453565b818111156104805783604083870101525b50601f01601f1916929092016040019392505050565b6020808252600f908201526e496e76616c6964206164647265737360881b604082015260600190565b6020808252601290820152714e6f7420656e6f7567682062616c616e636560701b604082015260600190565b602080825260119082015270125b9d985b1a59081c9958da5c1a595b9d607a1b604082015260600190565b90815260200190565b60ff91909116815260200190565b6000821982111561054057610540610597565b500190565b60008282101561055757610557610597565b500390565b60028104600182168061057057607f821691505b6020821081141561059157634e487b7160e01b600052602260045260246000fd5b50919050565b634e487b7160e01b600052601160045260246000fdfea26469706673582212209446ac36be02b43b6a89aa5eafd0565f066f643c31dc7883868a4ae572eb241864736f6c63430008000033",
  "immutableReferences": {},
  "source": "// SPDX-License-Identifier: MIT\r\npragma solidity ^0.8.0;\r\n\r\ncontract SampleERC20 {\r\n        string public name = \"SampleERC20\";\r\n    string public symbol = \"SIM\";\r\n    uint8 public decimals = 18;\r\n    uint256 public totalSupply;\r\n\r\n    mapping(address => uint256) public balanceOf;\r\n\r\n    event Transfer(address indexed from, address indexed to, uint256 value);\r\n    event Mint(address indexed to, uint256 value);\r\n\r\n    function mint(address to, uint256 amount) public {\r\n        require(to != address(0), \"Invalid address\");\r\n        balanceOf[to] += amount;\r\n        totalSupply += amount;\r\n        emit Mint(to, amount);\r\n        emit Transfer(address(0), to, amount);\r\n    }\r\n\r\n    function transfer(address to, uint256 amount) public returns (bool) {\r\n        require(balanceOf[msg.sender] >= amount, \"Not enough balance\");\r\n        require(to != address(0), \"Invalid recipient\");\r\n\r\n        balanceOf[msg.sender] -= amount;\r\n        balanceOf[to] += amount;\r\n\r\n        emit Transfer(msg.sender, to, amount);\r\n        return true;\r\n    }\r\n}",
  "sourcePath": "D:\\truffle test\\contracts\\SampleERC20.sol",
  "compiler": {
    "name": "solc",
    "version": "0.8.0+commit.c7dfd78e.Emscripten.clang"
  },
  "schemaVersion": "3.4.16",
  "updatedAt": "2025-09-19T11:07:19.458Z",
  "networkType": "ethereum",
  "devdoc": {
    "kind": "dev",
    "methods": {},
    "version": 1
  },
  "userdoc": {
    "kind": "user",
    "methods": {},
    "version": 1
  }
}